{
  "contractName": "Factory",
  "abi": [
    {
      "anonymous": false,
      "inputs": [
        {
          "indexed": true,
          "internalType": "address",
          "name": "tokenAddress",
          "type": "address"
        }
      ],
      "name": "TokenCreated",
      "type": "event"
    },
    {
      "inputs": [
        {
          "internalType": "string",
          "name": "name",
          "type": "string"
        },
        {
          "internalType": "string",
          "name": "symbol",
          "type": "string"
        },
        {
          "internalType": "uint256",
          "name": "totalSupply",
          "type": "uint256"
        },
        {
          "internalType": "address",
          "name": "issuer",
          "type": "address"
        }
      ],
      "name": "deployNewToken",
      "outputs": [
        {
          "internalType": "address",
          "name": "",
          "type": "address"
        }
      ],
      "stateMutability": "nonpayable",
      "type": "function"
    }
  ],
  "bytecode": "0x608060405234801561001057600080fd5b50611ef0806100206000396000f3fe60806040523480156200001157600080fd5b50600436106200002e5760003560e01c8063b9a4a46a1462000033575b600080fd5b6200005160048036038101906200004b9190620001aa565b62000069565b604051620000609190620002ab565b60405180910390f35b600080858585856040516200007e90620000fc565b6200008d9493929190620002c8565b604051809103906000f080158015620000aa573d6000803e3d6000fd5b5090508073ffffffffffffffffffffffffffffffffffffffff167f2e2b3f61b70d2d131b2a807371103cc98d51adcaa5e9a8f9c32658ad8426e74e60405160405180910390a280915050949350505050565b611a1d806200049e83390190565b6000620001216200011b8462000357565b62000323565b9050828152602081018484840111156200013a57600080fd5b62000147848285620003e4565b509392505050565b600081359050620001608162000469565b92915050565b600082601f8301126200017857600080fd5b81356200018a8482602086016200010a565b91505092915050565b600081359050620001a48162000483565b92915050565b60008060008060808587031215620001c157600080fd5b600085013567ffffffffffffffff811115620001dc57600080fd5b620001ea8782880162000166565b945050602085013567ffffffffffffffff8111156200020857600080fd5b620002168782880162000166565b9350506040620002298782880162000193565b92505060606200023c878288016200014f565b91505092959194509250565b6200025381620003a6565b82525050565b600062000266826200038a565b62000272818562000395565b935062000284818560208601620003f3565b6200028f8162000458565b840191505092915050565b620002a581620003da565b82525050565b6000602082019050620002c2600083018462000248565b92915050565b60006080820190508181036000830152620002e4818762000259565b90508181036020830152620002fa818662000259565b90506200030b60408301856200029a565b6200031a606083018462000248565b95945050505050565b6000604051905081810181811067ffffffffffffffff821117156200034d576200034c62000429565b5b8060405250919050565b600067ffffffffffffffff82111562000375576200037462000429565b5b601f19601f8301169050602081019050919050565b600081519050919050565b600082825260208201905092915050565b6000620003b382620003ba565b9050919050565b600073ffffffffffffffffffffffffffffffffffffffff82169050919050565b6000819050919050565b82818337600083830152505050565b60005b8381101562000413578082015181840152602081019050620003f6565b8381111562000423576000848401525b50505050565b7f4e487b7100000000000000000000000000000000000000000000000000000000600052604160045260246000fd5b6000601f19601f8301169050919050565b6200047481620003a6565b81146200048057600080fd5b50565b6200048e81620003da565b81146200049a57600080fd5b5056fe60806040523480156200001157600080fd5b5060405162001a1d38038062001a1d83398181016040528101906200003791906200035c565b83838160039080519060200190620000519291906200020c565b5080600490805190602001906200006a9291906200020c565b5050506200007f81836200008960201b60201c565b50505050620006cc565b600073ffffffffffffffffffffffffffffffffffffffff168273ffffffffffffffffffffffffffffffffffffffff161415620000fc576040517f08c379a0000000000000000000000000000000000000000000000000000000008152600401620000f3906200044d565b60405180910390fd5b62000110600083836200020260201b60201c565b806002600082825462000124919062000504565b92505081905550806000808473ffffffffffffffffffffffffffffffffffffffff1673ffffffffffffffffffffffffffffffffffffffff16815260200190815260200160002060008282546200017b919062000504565b925050819055508173ffffffffffffffffffffffffffffffffffffffff16600073ffffffffffffffffffffffffffffffffffffffff167fddf252ad1be2c89b69c2b068fc378daa952ba7f163c4a11628f55a4df523b3ef83604051620001e291906200046f565b60405180910390a3620001fe600083836200020760201b60201c565b5050565b505050565b505050565b8280546200021a90620005d5565b90600052602060002090601f0160209004810192826200023e57600085556200028a565b82601f106200025957805160ff19168380011785556200028a565b828001600101855582156200028a579182015b82811115620002895782518255916020019190600101906200026c565b5b5090506200029991906200029d565b5090565b5b80821115620002b85760008160009055506001016200029e565b5090565b6000620002d3620002cd84620004c0565b6200048c565b905082815260208101848484011115620002ec57600080fd5b620002f98482856200059f565b509392505050565b600081519050620003128162000698565b92915050565b600082601f8301126200032a57600080fd5b81516200033c848260208601620002bc565b91505092915050565b6000815190506200035681620006b2565b92915050565b600080600080608085870312156200037357600080fd5b600085015167ffffffffffffffff8111156200038e57600080fd5b6200039c8782880162000318565b945050602085015167ffffffffffffffff811115620003ba57600080fd5b620003c88782880162000318565b9350506040620003db8782880162000345565b9250506060620003ee8782880162000301565b91505092959194509250565b600062000409601f83620004f3565b91507f45524332303a206d696e7420746f20746865207a65726f2061646472657373006000830152602082019050919050565b620004478162000595565b82525050565b600060208201905081810360008301526200046881620003fa565b9050919050565b60006020820190506200048660008301846200043c565b92915050565b6000604051905081810181811067ffffffffffffffff82111715620004b657620004b562000669565b5b8060405250919050565b600067ffffffffffffffff821115620004de57620004dd62000669565b5b601f19601f8301169050602081019050919050565b600082825260208201905092915050565b6000620005118262000595565b91506200051e8362000595565b9250827fffffffffffffffffffffffffffffffffffffffffffffffffffffffffffffffff038211156200055657620005556200060b565b5b828201905092915050565b60006200056e8262000575565b9050919050565b600073ffffffffffffffffffffffffffffffffffffffff82169050919050565b6000819050919050565b60005b83811015620005bf578082015181840152602081019050620005a2565b83811115620005cf576000848401525b50505050565b60006002820490506001821680620005ee57607f821691505b602082108114156200060557620006046200063a565b5b50919050565b7f4e487b7100000000000000000000000000000000000000000000000000000000600052601160045260246000fd5b7f4e487b7100000000000000000000000000000000000000000000000000000000600052602260045260246000fd5b7f4e487b7100000000000000000000000000000000000000000000000000000000600052604160045260246000fd5b620006a38162000561565b8114620006af57600080fd5b50565b620006bd8162000595565b8114620006c957600080fd5b50565b61134180620006dc6000396000f3fe608060405234801561001057600080fd5b50600436106100a95760003560e01c80633950935111610071578063395093511461016857806370a082311461019857806395d89b41146101c8578063a457c2d7146101e6578063a9059cbb14610216578063dd62ed3e14610246576100a9565b806306fdde03146100ae578063095ea7b3146100cc57806318160ddd146100fc57806323b872dd1461011a578063313ce5671461014a575b600080fd5b6100b6610276565b6040516100c3919061100a565b60405180910390f35b6100e660048036038101906100e19190610c83565b610308565b6040516100f39190610fef565b60405180910390f35b610104610326565b604051610111919061110c565b60405180910390f35b610134600480360381019061012f9190610c34565b610330565b6040516101419190610fef565b60405180910390f35b610152610428565b60405161015f9190611127565b60405180910390f35b610182600480360381019061017d9190610c83565b610431565b60405161018f9190610fef565b60405180910390f35b6101b260048036038101906101ad9190610bcf565b6104dd565b6040516101bf919061110c565b60405180910390f35b6101d0610525565b6040516101dd919061100a565b60405180910390f35b61020060048036038101906101fb9190610c83565b6105b7565b60405161020d9190610fef565b60405180910390f35b610230600480360381019061022b9190610c83565b6106a2565b60405161023d9190610fef565b60405180910390f35b610260600480360381019061025b9190610bf8565b6106c0565b60405161026d919061110c565b60405180910390f35b6060600380546102859061123c565b80601f01602080910402602001604051908101604052809291908181526020018280546102b19061123c565b80156102fe5780601f106102d3576101008083540402835291602001916102fe565b820191906000526020600020905b8154815290600101906020018083116102e157829003601f168201915b5050505050905090565b600061031c610315610747565b848461074f565b6001905092915050565b6000600254905090565b600061033d84848461091a565b6000600160008673ffffffffffffffffffffffffffffffffffffffff1673ffffffffffffffffffffffffffffffffffffffff1681526020019081526020016000206000610388610747565b73ffffffffffffffffffffffffffffffffffffffff1673ffffffffffffffffffffffffffffffffffffffff16815260200190815260200160002054905082811015610408576040517f08c379a00000000000000000000000000000000000000000000000000000000081526004016103ff9061108c565b60405180910390fd5b61041c85610414610747565b85840361074f565b60019150509392505050565b60006012905090565b60006104d361043e610747565b84846001600061044c610747565b73ffffffffffffffffffffffffffffffffffffffff1673ffffffffffffffffffffffffffffffffffffffff16815260200190815260200160002060008873ffffffffffffffffffffffffffffffffffffffff1673ffffffffffffffffffffffffffffffffffffffff168152602001908152602001600020546104ce919061115e565b61074f565b6001905092915050565b60008060008373ffffffffffffffffffffffffffffffffffffffff1673ffffffffffffffffffffffffffffffffffffffff168152602001908152602001600020549050919050565b6060600480546105349061123c565b80601f01602080910402602001604051908101604052809291908181526020018280546105609061123c565b80156105ad5780601f10610582576101008083540402835291602001916105ad565b820191906000526020600020905b81548152906001019060200180831161059057829003601f168201915b5050505050905090565b600080600160006105c6610747565b73ffffffffffffffffffffffffffffffffffffffff1673ffffffffffffffffffffffffffffffffffffffff16815260200190815260200160002060008573ffffffffffffffffffffffffffffffffffffffff1673ffffffffffffffffffffffffffffffffffffffff16815260200190815260200160002054905082811015610683576040517f08c379a000000000000000000000000000000000000000000000000000000000815260040161067a906110ec565b60405180910390fd5b61069761068e610747565b8585840361074f565b600191505092915050565b60006106b66106af610747565b848461091a565b6001905092915050565b6000600160008473ffffffffffffffffffffffffffffffffffffffff1673ffffffffffffffffffffffffffffffffffffffff16815260200190815260200160002060008373ffffffffffffffffffffffffffffffffffffffff1673ffffffffffffffffffffffffffffffffffffffff16815260200190815260200160002054905092915050565b600033905090565b600073ffffffffffffffffffffffffffffffffffffffff168373ffffffffffffffffffffffffffffffffffffffff1614156107bf576040517f08c379a00000000000000000000000000000000000000000000000000000000081526004016107b6906110cc565b60405180910390fd5b600073ffffffffffffffffffffffffffffffffffffffff168273ffffffffffffffffffffffffffffffffffffffff16141561082f576040517f08c379a00000000000000000000000000000000000000000000000000000000081526004016108269061104c565b60405180910390fd5b80600160008573ffffffffffffffffffffffffffffffffffffffff1673ffffffffffffffffffffffffffffffffffffffff16815260200190815260200160002060008473ffffffffffffffffffffffffffffffffffffffff1673ffffffffffffffffffffffffffffffffffffffff168152602001908152602001600020819055508173ffffffffffffffffffffffffffffffffffffffff168373ffffffffffffffffffffffffffffffffffffffff167f8c5be1e5ebec7d5bd14f71427d1e84f3dd0314c0f7b2291e5b200ac8c7c3b9258360405161090d919061110c565b60405180910390a3505050565b600073ffffffffffffffffffffffffffffffffffffffff168373ffffffffffffffffffffffffffffffffffffffff16141561098a576040517f08c379a0000000000000000000000000000000000000000000000000000000008152600401610981906110ac565b60405180910390fd5b600073ffffffffffffffffffffffffffffffffffffffff168273ffffffffffffffffffffffffffffffffffffffff1614156109fa576040517f08c379a00000000000000000000000000000000000000000000000000000000081526004016109f19061102c565b60405180910390fd5b610a05838383610b9b565b60008060008573ffffffffffffffffffffffffffffffffffffffff1673ffffffffffffffffffffffffffffffffffffffff16815260200190815260200160002054905081811015610a8b576040517f08c379a0000000000000000000000000000000000000000000000000000000008152600401610a829061106c565b60405180910390fd5b8181036000808673ffffffffffffffffffffffffffffffffffffffff1673ffffffffffffffffffffffffffffffffffffffff16815260200190815260200160002081905550816000808573ffffffffffffffffffffffffffffffffffffffff1673ffffffffffffffffffffffffffffffffffffffff1681526020019081526020016000206000828254610b1e919061115e565b925050819055508273ffffffffffffffffffffffffffffffffffffffff168473ffffffffffffffffffffffffffffffffffffffff167fddf252ad1be2c89b69c2b068fc378daa952ba7f163c4a11628f55a4df523b3ef84604051610b82919061110c565b60405180910390a3610b95848484610ba0565b50505050565b505050565b505050565b600081359050610bb4816112dd565b92915050565b600081359050610bc9816112f4565b92915050565b600060208284031215610be157600080fd5b6000610bef84828501610ba5565b91505092915050565b60008060408385031215610c0b57600080fd5b6000610c1985828601610ba5565b9250506020610c2a85828601610ba5565b9150509250929050565b600080600060608486031215610c4957600080fd5b6000610c5786828701610ba5565b9350506020610c6886828701610ba5565b9250506040610c7986828701610bba565b9150509250925092565b60008060408385031215610c9657600080fd5b6000610ca485828601610ba5565b9250506020610cb585828601610bba565b9150509250929050565b610cc8816111c6565b82525050565b6000610cd982611142565b610ce3818561114d565b9350610cf3818560208601611209565b610cfc816112cc565b840191505092915050565b6000610d1460238361114d565b91507f45524332303a207472616e7366657220746f20746865207a65726f206164647260008301527f65737300000000000000000000000000000000000000000000000000000000006020830152604082019050919050565b6000610d7a60228361114d565b91507f45524332303a20617070726f766520746f20746865207a65726f20616464726560008301527f73730000000000000000000000000000000000000000000000000000000000006020830152604082019050919050565b6000610de060268361114d565b91507f45524332303a207472616e7366657220616d6f756e742065786365656473206260008301527f616c616e636500000000000000000000000000000000000000000000000000006020830152604082019050919050565b6000610e4660288361114d565b91507f45524332303a207472616e7366657220616d6f756e742065786365656473206160008301527f6c6c6f77616e63650000000000000000000000000000000000000000000000006020830152604082019050919050565b6000610eac60258361114d565b91507f45524332303a207472616e736665722066726f6d20746865207a65726f20616460008301527f64726573730000000000000000000000000000000000000000000000000000006020830152604082019050919050565b6000610f1260248361114d565b91507f45524332303a20617070726f76652066726f6d20746865207a65726f2061646460008301527f72657373000000000000000000000000000000000000000000000000000000006020830152604082019050919050565b6000610f7860258361114d565b91507f45524332303a2064656372656173656420616c6c6f77616e63652062656c6f7760008301527f207a65726f0000000000000000000000000000000000000000000000000000006020830152604082019050919050565b610fda816111f2565b82525050565b610fe9816111fc565b82525050565b60006020820190506110046000830184610cbf565b92915050565b600060208201905081810360008301526110248184610cce565b905092915050565b6000602082019050818103600083015261104581610d07565b9050919050565b6000602082019050818103600083015261106581610d6d565b9050919050565b6000602082019050818103600083015261108581610dd3565b9050919050565b600060208201905081810360008301526110a581610e39565b9050919050565b600060208201905081810360008301526110c581610e9f565b9050919050565b600060208201905081810360008301526110e581610f05565b9050919050565b6000602082019050818103600083015261110581610f6b565b9050919050565b60006020820190506111216000830184610fd1565b92915050565b600060208201905061113c6000830184610fe0565b92915050565b600081519050919050565b600082825260208201905092915050565b6000611169826111f2565b9150611174836111f2565b9250827fffffffffffffffffffffffffffffffffffffffffffffffffffffffffffffffff038211156111a9576111a861126e565b5b828201905092915050565b60006111bf826111d2565b9050919050565b60008115159050919050565b600073ffffffffffffffffffffffffffffffffffffffff82169050919050565b6000819050919050565b600060ff82169050919050565b60005b8381101561122757808201518184015260208101905061120c565b83811115611236576000848401525b50505050565b6000600282049050600182168061125457607f821691505b602082108114156112685761126761129d565b5b50919050565b7f4e487b7100000000000000000000000000000000000000000000000000000000600052601160045260246000fd5b7f4e487b7100000000000000000000000000000000000000000000000000000000600052602260045260246000fd5b6000601f19601f8301169050919050565b6112e6816111b4565b81146112f157600080fd5b50565b6112fd816111f2565b811461130857600080fd5b5056fea2646970667358221220815e46a411996fb4b9b71f403125a11a073e1220e1795f7a837a5667fcd95aba64736f6c63430008000033a26469706673582212205d01e35c232ed60a2333d1bf5c7260fe112a8ceb25008c313d0a35c6785980dd64736f6c63430008000033",
  "immutableReferences": {},
  "source": "pragma solidity ^0.8.0;\r\n\r\nimport \"@openzeppelin/contracts/token/ERC20/ERC20.sol\";\r\n\r\ncontract MyToken is ERC20 {\r\n\r\n    constructor(string memory _name, string memory _symbol, uint _totalSupply, address _issuer) ERC20(_name,_symbol) {\r\n        _mint(_issuer, _totalSupply);\r\n    }\r\n\r\n}\r\n\r\ncontract Factory {\r\n    event TokenCreated(address indexed tokenAddress);\r\n\r\n    function deployNewToken(string memory name, string memory symbol, uint totalSupply, address issuer) \r\n    public returns (address) {\r\n        MyToken t = new MyToken(name, symbol, totalSupply, issuer);\r\n        emit TokenCreated(address(t));\r\n        return address(t);\r\n    }\r\n}",
  "sourcePath": "C:/Users/Harshit Gupta/Documents/Solidity/TokenFactory/contracts/TokenFactory.sol",
  "compiler": {
    "name": "solc",
    "version": "0.8.0+commit.c7dfd78e.Emscripten.clang"
  },
  "schemaVersion": "3.4.1",
  "updatedAt": "2021-08-03T08:16:12.517Z",
  "networkType": "ethereum",
  "devdoc": {
    "kind": "dev",
    "methods": {},
    "version": 1
  },
  "userdoc": {
    "kind": "user",
    "methods": {},
    "version": 1
  }
}